{
  "contractName": "Calc",
  "abi": [
    {
      "constant": false,
      "inputs": [
        {
          "name": "a",
          "type": "uint256"
        },
        {
          "name": "b",
          "type": "uint256"
        }
      ],
      "name": "add",
      "outputs": [
        {
          "name": "",
          "type": "uint256"
        }
      ],
      "payable": false,
      "stateMutability": "nonpayable",
      "type": "function"
    },
    {
      "constant": true,
      "inputs": [],
      "name": "getCount",
      "outputs": [
        {
          "name": "",
          "type": "uint256"
        }
      ],
      "payable": false,
      "stateMutability": "view",
      "type": "function"
    }
  ],
  "bytecode": "0x608060405234801561001057600080fd5b50610111806100206000396000f3006080604052600436106049576000357c0100000000000000000000000000000000000000000000000000000000900463ffffffff168063771602f714604e578063a87d942c146096575b600080fd5b348015605957600080fd5b506080600480360381019080803590602001909291908035906020019092919050505060be565b6040518082815260200191505060405180910390f35b34801560a157600080fd5b5060a860dc565b6040518082815260200191505060405180910390f35b60008060008154809291906001019190505550818301905092915050565b600080549050905600a165627a7a723058207d881050746de6b5c5521999cfe3f47fc9ccc427443537cb5e7a5c849833fc9e0029",
  "source": "pragma solidity ^0.4.0;\n/*https://www.ethereum.org/greeter*/\n/*solc -o target --bin --abi Calc.sol*/\ncontract Calc{\n  /*区块链存储*/\n  uint count;\n\n  /*执行会写入数据，所以需要`transaction`的方式执行。*/\n  function add(uint a, uint b) returns(uint){\n    count++;\n    return a + b;\n  }\n\n  /*执行不会写入数据，所以允许`call`的方式执行。*/\n  function getCount() constant returns (uint){\n    return count;\n  }\n}\n",
  "sourcePath": "/Users/apple/Documents/CYCToken/contracts/Calc.sol",
  "compiler": {
    "name": "solc",
    "version": "0.4.23+commit.124ca40d.Emscripten.clang"
  },
  "schemaVersion": "2.0.0",
  "updatedAt": "2018-04-25T09:08:32.368Z"
}