{
  "contractName": "Calc",
  "abi": [
    {
      "constant": false,
      "inputs": [
        {
          "name": "a",
          "type": "uint256"
        },
        {
          "name": "b",
          "type": "uint256"
        }
      ],
      "name": "add",
      "outputs": [
        {
          "name": "",
          "type": "uint256"
        }
      ],
      "payable": false,
      "stateMutability": "nonpayable",
      "type": "function"
    },
    {
      "constant": true,
      "inputs": [],
      "name": "getCount",
      "outputs": [
        {
          "name": "",
          "type": "uint256"
        }
      ],
      "payable": false,
      "stateMutability": "view",
      "type": "function"
    }
  ],
  "bytecode": "0x6060604052341561000f57600080fd5b6101048061001e6000396000f3006060604052600436106049576000357c0100000000000000000000000000000000000000000000000000000000900463ffffffff168063771602f714604e578063a87d942c14608b575b600080fd5b3415605857600080fd5b6075600480803590602001909190803590602001909190505060b1565b6040518082815260200191505060405180910390f35b3415609557600080fd5b609b60cf565b6040518082815260200191505060405180910390f35b60008060008154809291906001019190505550818301905092915050565b600080549050905600a165627a7a723058209db943a4a5088a7b9cb48a42b5def53e4e492e8e78e624e50692168dadd6b72f0029",
  "source": "pragma solidity ^0.4.0;\n/*https://www.ethereum.org/greeter*/\n/*solc -o target --bin --abi Calc.sol*/\ncontract Calc{\n  /*区块链存储*/\n  uint count;\n\n  /*执行会写入数据，所以需要`transaction`的方式执行。*/\n  function add(uint a, uint b) returns(uint){\n    count++;\n    return a + b;\n  }\n\n  /*执行不会写入数据，所以允许`call`的方式执行。*/\n  function getCount() constant returns (uint){\n    return count;\n  }\n}\n",
  "sourcePath": "/Users/apple/Documents/CYCToken/contracts/Calc.sol",
  "compiler": {
    "name": "solc",
    "version": "0.4.21+commit.dfe3193c.Emscripten.clang"
  },
  "schemaVersion": "2.0.0",
  "updatedAt": "2018-04-27T03:21:33.495Z"
}